250000T010210ADAMU MBUJAI               01015856 0050000
250000T010212SOROH GEDE                 01015856 0050000
250000T055524NGWANYAM NAPOLEON NYEQUEKUP01015856 0141500
250000U010218ALI ADAMU ARDO             01015856 0050000
250000W003937WEPKE IVO                  00000000 0050000
250000Z055491MASAH ISIFU NDAMSA         00000000 0113573
250000198115SMEDJO CELINE               00000000 0047250
250000202116OBAWE DAVID                 00000000 0178733
250000202186DAUDU KWALAR JAMES          00000000 0325211
250000306715QMBAYA ERIC KIMBI           00000000 0056702
250000450859IHAMAN MICHEL               00000000 0013230
250000073777RGWEH SOMUH DANIEL          00000000 0087979
250000073788ANSAIDZEKA WIRESLUS         00000000 0024500
250000073836WMBE ISIDORE                00000000 0023800
250000096642QNGEH CHRYSANTHUS A         00000000 0032700
250000134187VATAH ENYIAWAH THOMAS       00000000 0044343
250000134254TAFFA BESEKA ANGELA         00000000 0158827
250000134840HANGWA ENYEJI MICHAEL       00000000 0275792
250000145140MBANTAR KIMASAR THOMAS      00000000 0037800
250000202265LALLAH DAVID NTUNGWE        00000000 0183615
250000094306QBONGADU TATA TOBIAS        00000000 0020100
250000094315RNCHE MOSES AKOH            00000000 0035200
250000107642ZTAMUFOR MBONI VINCENT      00000000 0086143
250000121464TYIRIM IDIRISU FABAR        00000000 0013200
250000121552TAKOBOTA SALOME ECHOKU      00000000 0037400
250000132499HAKOH ANYELE ANDREW         00000000 0051250
250000132528JWILBA JEAN PIERRE          00000000 0053787
250000143380FMBANWE KIMBI TOBIAS        00000000 0021900
250000143382FYUNIWO ELIJAH NGALA        00000000 0027800
250000162271TANGAMI JACOB AGHAABI       00000000 0055412
250000202099MAMBANE RICHARD AMARA       00000000 0334048
250000306169XNGAMBOM RITRE DIANA        00000000 0017100
250000306175QBUNGWA TIMOTHY SUNDAY      00000000 0048100
250000306283JCHI LUCAS TABONG           00000000 0041200
250000306382JLIENGE TITUS JAM           00000000 0034548
250000306601EFEGHA VINCENTIA            00000000 0030500
250000306751KGYARA ROSE TENGUH          00000000 0034097
250000071359MWILBAKREO RENE             00000000 0017988
250000071818SYENE ELANGA MARTIN         00000000 0039637
250000094424MTOMBI MUNYA LUCAS          00000000 0037600
250000096464QNGAYI PATRICK TUTI         00000000 0037000
250000096531NANGWA ROBERT               00000000 0031500
250000121649MNDI KIYOH FIDELIS          00000000 0038572
250000122499YTCHAMOKOUM JEAN PAUL       00000000 0068491
250000133340BNDI BARNABAS               00000000 0022400
250000133672QLUKONG MBINKAR             00000000 0011800
250000144416AKOLSOUMA PIERRE            00000000 0047087
250000251678YDJONDANDI MARCEL           00000000 0211343
250000253105PDEYAO DENIS                00000000 0051550
250000253392YWANKISSAM ROUMSALA         00000000 0023700
250000353210RSHEY SYLVESTER KWE         00000000 0161447
250000354539XWIRSIY NEE MBI BESONG JEAN 00000000 0234509
250000046199QNDANGOH HELEN AMBE         00000000 0158960
250000061536ANDAMNSA NDIKON ADRIAN JOHN 00000000 0128264
250000074229AMBUKITOH NTAMI MICHAEL     00000000 0065586
250000074257LNGEBI SIMON                00000000 0018800
250000110543JNJIP MATHURIN              00000000 0081016
250000110732KFONKWA NKWENTI SAMUEL      00000000 0068333
250000145505SNDJIB MARTHE LYDIE         00000000 0046205
250000145513LDZENYUY SIKA STEPHEN       00000000 0033500
250000251092TADJI PIERRE                00000000 0087555
250000251274LWAGA TAOUKREO              00000000 0029052
250000251315YBEIDI PASCAL               00000000 0179167
250000354729QLENYUNGA BRIDGET           00000000 0140043
250000354775TNGO WILSON WIRNKA          00000000 0175191
250000061805MNDAMSAH CLEMENT GAH        00000000 0014974
250000077774CESIMBOE KAMA GABRIEL       00000000 0138997
250000124172UTABIA NDOH PETER           00000000 0151791
250000146307MYENJIKA IVO DINE           00000000 0271347
250000156491MNGALLE EKIMEA AUGUSTINE    00000000 0410960
250000172957RDABOULE LEON               00000000 0176040
250000173465WMENGUE 2                   00000000 0043636
250000125768JJANGMAH MATTHE TAMUKONG    00000000 0027500
250000125949MNGWANG NICODEMUS NCH       00000000 0020300
250000166143TSOH MATILDE                00000000 0060385
250000174502MCHIMTOM MOSES FOMBA        00000000 0040072
250000175039MMBAH DOROTHY NJWEN         00000000 0034000
250000199158QBELLO SIMON                00000000 0142620
250000302196WTUME PATRICK BIRAD         00000000 0028300
250000302216YNYUYKI JOHN                00000000 0031200
250000302228MAKWA JAMES EMENE           00000000 0044700
250000302268UKIMBI PATRICK SHEBU        00000000 0049800
250000358838UWAMBO HENRY NCHUKWI        00000000 0066825
250000359149YEGBE TABE NYEN CATHERINE   00000000 0058659
250000062767XMONIE BENJAMIN LUCA        00000000 0076487
250000079853MNGOMASA NICODEMUS          00000000 0052636
250000080267JNGONO MBALA                00000000 0186394
250000098343WYULEM ANDREW               00000000 0038600
250000138615GAJONG TANKA PETER          00000000 0022900
250000148577LTAMUKONGCHU ROBERT         00000000 0017600
250000062005LNGOME MARGARET             00000000 0191915
250000062150ZAJEIH ABOMBENG EMMANUEL    00000000 0060477
250000078663SMVENYI JOHN FUSHI          00000000 0057456
250000097687DLABAN MBINKA GODFREY       00000000 0017200
250000097861TJEMNGANG JOHN SONGWI       00000000 0048072
250000137095HHENRY CLERK                00000000 0020000
250000146792VSAFE AUGUSTINE             00000000 0036400
250000198935TYAYA ISAH                  00000000 0087893
250000198974XNTEM MATHIEU               00000000 0192548
250000253572YNGASSIA GILBERT            00000000 0028650
250000254257UABDOURAMAN IDRISSA         00000000 0050750
250000254746ZYAYA BELAL                 00000000 0063050
250000254796DHAMAN PHILIPPE             00000000 0009958
250000254806VKADAVASSAM MIDAHOA         00000000 0055550
250000254987VGUISKREO DJARKISSAM        00000000 0033949
250000079050VKIVEN MATHIAS BANKU        00000000 0073950
250000097970EKUMBO NOA WASTENGEN        00000000 0028472
250000113068ANAH NSANYI FRANCIS         00000000 0073988
250000125317JUFENGWEI SABINA UBARAK     00000000 0040600
250000176606UMAINA DJONKAMB MAIGARI     00000000 0118076
250000303292QSHEY MANSSES NDI           00000000 0122658
250000303441UTENJONCHA JOANA            00000000 0053700
250000303550GFONTAWAH NDE PIERRE        00000000 0031600
250000166583SABONGWA NEE SHU JOSEPHER L 00000000 0186039
250000199319WEBENGUE MICHEL             00000000 0175759
250000199479TLAHE                       00000000 0171751
250000302498JMENDONG SAMUEL ENJI        00000000 0170135
250000302604BEKAYUNG                    00000000 0046400
250000363608DYUFENYUY PETER TATA        00000000 0031185
250000052116NFONYE JOSEPH               00000000 0063598
250000052362SKINYUY JOHN                00000000 0082972
250000063036GJATO ELIJAH NFOR           00000000 0120411
250000126522NWACHA ANDREAS              00000000 0016000
250000126523VMBU AJAI MARGARET          00000000 0024100
250000126848MNGBAH JOSEPH               00000000 0019100
250000126912YLOOH ANNEH PETER           00000000 0035391
250000138939TNGE NDIKUMA DANIEL         00000000 0017800
250000138949DFAI PETER NGORAN           00000000 0048900
250000149399DKUMBU JONATHAN NDI         00000000 0040137
250000158015JKUMFA PROTUS NCHENI        00000000 0099308
250000166847ADJAGBA                     00000000 0198469
250000176109INGARVOUNSIA JEAN           00000000 0284498
250000176122MNGOUSTOING RAYMOND         00000000 0161870
250000199668UGORSOU ATANGAN PASCAL      00000000 0188011
250000302921XLAKO CLEMENT               00000000 0037500
250000302999ENKEZA MBIA DANIEL          00000000 0020434
250000303230AMAMBEH MENGI ELIAS         00000000 0044300
250000363870LANDOH STEPHEN BECHA        00000000 0061200
250000364796NTANGYI SARAH BIH           00000000 0070034
250000053691JLEKOUA JOSEPH              00000000 0058400
250000063133QSAYANI MANSHAN ELIAS       00000000 0034900
250000100705ZNJONG EMMANUEL NTAS        00000000 0039760
250000100713JMEYOF STEPHEN GHUMU        00000000 0053000
250000115901OSHANG THADDEUS KARN        00000000 0130227
250000115910PJITZI JONATHAN             00000000 0085728
250000127155NBUN CHRISTINA              00000000 0040100
250000127199JMBE JULIE KEBA             00000000 0044500
250000127388JAFAH MARTIN                00000000 0035800
250000127720QGWETIE LEIFEH CORNELIUS    00000000 0029700
250000139333XEMFU NUKI GEORGE           00000000 0035600
250000139647BANE AZI SIMON              00000000 0040150
250000103040YTOMLA THOMAS               00000000 0016900
250000128757LBEMU GIYOH JONATHAN        00000000 0040712
250000128898HADU NCHORO GABRIEL         00000000 0009760
250000168295STATA SAMUEL TAAL           00000000 0034288
250000168382MLAYANG HARAITA             00000000 0148429
250000168491DTACHI NGWI JAMES           00000000 0035572
250000200643LDJAKDJING FRANCOIS         00000000 1885126
250000303972LFAI NSOMBAM                00000000 0036300
250000304103YAZAH NEE AMBU PAULINE UNDI 00000000 0044537
250000304178WMBAH THADDEUS SUNL         00000000 0052134
250000103673YWIRSIY SALOMON             00000000 0030287
250000130039EWANJAH NFOR ELIJAH         00000000 0034000
250000130119UNYAREH FIADEH JEREMIAH     00000000 0024200
250000140994MVOMA DINGA CLEMENT         00000000 0032700
250000054917WNFORGWEI ENOCK TATA        00000000 0194904
250000127949TEGYANDUM AMBE DAVID        00000000 0021900
250000139888HCHENYUI PIUS               00000000 0016200
250000139890IBEBANDIE JOSEPH            00000000 0022400
250000139894ZSHEH JACOB                 00000000 0029300
250000150840DCHUYEH FAI HELBERT         00000000 0046600
250000158836SYOKWEI PHILIP TATA         00000000 0040598
250000167858CTANGIRI CLETUS NJONYU      00000000 0118142
250000168158GDONG A KIYECK MARTIN       00000000 0059387
250000195849AWANGMINI FAUSTIN           00000000 0163511
250000200258AMBOUDGA LEONARD            00000000 0154532
250000200304ENGOUN                      00000000 0139824
250000303725WJATO MICHAEL NGANK         00000000 0036150
250000303831YNGWAINBI LUCAS             00000000 0017200
250000303861ATOKO PATRICK NDIMU         00000000 0040250
250000056112YMEDJO OWOUNDI SALOMON FELIX00000000 0209988
250000063541TNFORMI NGWANG GABRIEL      00000000 0045246
250000084121YCHUG FESTUS                00000000 0068243
250000152730DMBEHNKUM MOHAMADOU         00000000 0052596
250000159594ODOTA GREGORY AKOME         00000000 0134154
250000159614YGWEI KWA EMMANUEL          00000000 0052272
250000200791IAMON ALOYSUIS FEDU         00000000 0075021
250000200861GZE ESSOMBA GILBERT         00000000 0145420
250000304321SANYET NEE ENENWEI          00000000 0033600
250000304382RSHEY MICHAEL KUME          00000000 0075133
250000304597LNKEH SIMON                 00000000 1027820
250000065917PNGONANGIE JUSTINA          00000000 0135938
250000104156SBIGIH NJI SAMUEL           00000000 0014000
250000104600MATANGA TANJONG JOSEPH      00000000 0124943
250000130333YNGONG NGAH                 00000000 0011800
250000130346ZTATAH TANLEY BONIVENTURE   00000000 0015100
250000141490FNGENGE MBESA JAMES         00000000 0043600
250000141658NNTIMENA AMOUGO U           00000000 0039302
250000152490PNGWANG JAMES NFOR          00000000 0067717
250000159988ALUMA PETER                 00000000 0038700
250000201081MDAWA                       00000000 0069191
250000304666JSHEYNWE DENIS NKOH         00000000 0025200
250000304686CFORTU CHRISTOPHER          00000000 0028400
250000305166OBAH EDERISU TAMUNANG       00000000 0052812
250000060255QANYE SIMON                 00000000 0018928
250000088606FFONCHU MBONJO MARTIN       00000000 0025112
250000131273BMUNAI KEGHA JOSEPH         00000000 0021300
250000131458CKIMBI THOMAS               00000000 0022300
250000131693RVONDOU ZAOU                00000000 0095687
250000839789DDONFACK NEE SOBJIEU JEANNE 00000000 0064931
250000839836AYEBGA NEE NAHMU STELLE     00000000 0041506
250000865375NPATRICK NSAH KILOH         00000000 0024400
250000K031915KUNDE FOWANKO TIMOTHY      00000000 0100000
250000044770RNGWESE EPIE JACOB          00000000 0113269
250000044937QNGALIM WANYU PETER         00000000 0389088
250000663334WBILAMO ABBO DANIEL         00000000 0177443
250000663892HNFORMI ROSE MUNGU          00000000 0156429
250000201278CETELE HUBERT PAULIN        00000000 0045975
250000305611NNJIE NGUNDAM ROBERT        00000000 0016300
250000305637YYIMUO NCHALE AUGUSTINE     00000000 0035300
250000305655MTANGOH PAUL                00000000 0027000
250000374321LHAOLA GILBERT              00000000 0086275
250000375858LFAI MARTIN WIRNDZ          00000000 0169095
250000089878PNGUEDJOU SALOMON           00000000 0038075
250000090231FTOURA DOUGUINA             00000000 0012700
250000090753UBOUBA MOMBRONG             00000000 0031150
250000120419XFON ABRAHAM ATAH           00000000 0187122
250000132116ODIMAISSOU DAVID            00000000 0074033
250000143066MNSAKA SAMBA JAMES          00000000 0031000
250000143105FYULEM NDZENDZE ERIC        00000000 0025400
250000143219YSUSUNG KONFOR ATHANASIUS   00000000 0032300
250000143268DDANDIBI MUSA               00000000 0029400
250000153754QMANG IGRI WAIBE            00000000 0170135
250000197655ANGUEBA JEAN                00000000 0187911
250000197770MBOUBA PIERRE               00000000 0206084
250000201521JBAYANG BASTO               00000000 0278187
250000201759PNDENGUE BIDOUN             00000000 0147194
250000305815YNGANCHU HANSON             00000000 0014700
250000305840MJENWEN MBILAB ENOCH        00000000 0054400
250000305856TNDZELEN VINCENT            00000000 0038000
250000305878NSHU ZACHEUS                00000000 0032500
250000306122BCHUYUM DAVID               00000000 0022900
250000809904PAMINA ALI                  00000000 0067323
250000809960CTARSAM                     00000000 0055356
250000827644WBADOEDANA BADOEDANA PAUL   00000000 0042969
250000827992VTAMASANG MICHEL            00000000 0029987
250000828042JMENYA PAUL                 00000000 0019534
250000828059SBISONG JACOB ARREY         00000000 0021201
250000844280TKAH NEE ZUH CHU HELEN      00000000 0051046
250000806401HANEGA BARBARE              00000000 0034459
250000806703BNDUKONG SADRAC SHADRACK    00000000 0040452
250000825560NAKO BENJAMIN               00000000 0025825
250000842545JNYOGA                      00000000 0012000
250000842659TMEBALLE NNE NGAH AGATHE    00000000 0159181
250000842668UNKOCK ESSOMBO BERNARD      00000000 0024200
250000868164DELISABETH NGWAFU           00000000 0018800
250000F055456BUINDA JERAN JUMBUIN       00000000 0141500
250000K055510NDENGI EBENEZAR DECHE      00000000 0113573
250000045838QDINGA NKUM GEORGE          00000000 0014478
250000045927YNDANSI PETER               00000000 0075892
250000808337LMAIBADA CELESTINE ELSABETH 00000000 0057058
250000808822XNGO BIKAI MARTHE LYDIE     00000000 0202922
250000843574ESEN MADELEINE              00000000 0006445
250000843577NAMANG A NWATCHOCK CALVIN   00000000 0015039
250000844012CMBEI AGATHA LENG ACHUO     00000000 0038000
250000844252JNDZE ALFRED WIRBA          00000000 0017187
250000L010214SAIDU IJE                  00000000 0050000
250000652586TPAGORE SERIA               00000000 0170929
250000652622GYAYA MUSA GAMNJE BOUDI     00000000 0100000
250000667207FJOKU GEORGES               00000000 0042575
250000667984BMENKEH JULIUS KELOH        00000000 0053691
250000828695TASANJI PETER               00000000 0006251
250000828699TFON LUCAS                  00000000 0016946
250000828715EFOKOUM JOHN                00000000 0016110
250000828729GFORBA LEBERE JOHN          00000000 0017010
250000847753YMOUMMO ALBERT              00000000 0008593
250000847828XEWONDE NOAH ILUKESON       00000000 0032100
250000848114ISIRRI JOSEPHINE            00000000 0057540
250000M012894ADAMOU CHIEF SALE          00000000 0050000
250000668402ZLUCY EVENYE EWONDO         00000000 0199022
250000668496ITOUBAYA SIRIA              00000000 0160818
250000668850YNGWAMITANG RHODA TOKO      00000000 0062175
250000669753RISHAGA EL SALI             00000000 0195453
250000685280KGWE PRESQUILLIA WUJUNGBUEN 00000000 0278597
250000844903SYEDNA NEE KOBOUBE JACQUELI 00000000 0060972
250000A012892NDISHUA SULE MBUTI         00000000 0050000
250000G003938GENESIS NGANJI             00000000 0050000
250000G006460NGENGE NJAMNSI ELIJAH      00000000 0050000
250000828127MTAMFU NEE ROSE MUTFU       00000000 0038425
250000828560QAWAN JOAN ATUH             00000000 0081737
250000828646PMENTI ENKOH TITO           00000000 0011409
250000846198WNFOR NDI NEE MULUR AGNES   00000000 0135519
250000731934MNJECK ROGER YEKO           00000000 0136840
250000830618OAKUM NEE AMBANG AKOM SARAH 00000000 0040390
250000830778DIFANG NEE IFANG ALICE ABAA 00000000 0076312
250000R036032ADAMU OUSMANU              00000000 0050000
250000670557YLOCK                       00000000 0134379
250000670695CNJOYA JAMES ANGWAFOR       00000000 0080393
250000706610AKPUKISANG RELINDIS DULAFE  00000000 0155836
250000749100GAMABO                      00000000 0063651
250000853952POLIVIER ALI NFORMI         00000000 0066172
250000854118ETCHOCONTE JOSEPH           00000000 0006445
250000I008460CHUBIP FAI                 00000000 0050000
250000I010448MENTI IGNATIUS WANCHO      00000000 0050000
250000657482WMARY LEMNYUY               00000000 0161025
250000673969PYUNGSE MERCY KEBUNDEH      00000000 0176725
250000834013CDOH FOMUFOD NEE NDIFANG ES 00000000 0047202
250000834179BNDAM NEE LUM TABOH JEANNET 00000000 0221676
250000834843NDJAKGUI NEE WABOLGA ESTHER 00000000 0074766
250000855497HLIMA THOMAS BESAKA         00000000 0060900
250000855834FWABO PENLAP RAPHAEL        00000000 0010742
250000C010211ARDO DAOUDA GIDADO         00000000 0050000
250000C010213IBRAHIM HAMADOU            00000000 0050000
250000C031921ABDOU JULI                 00000000 0050000
250000041047FBENLA MUAFUEH FRANCIS      00000000 0073306
250000041066YNGALA NGWANG  RETRAITEFRAN 00000000 0108094
250000817409MWOINTCOUE ELEINE           00000000 0020560
250000852156GSHEY NE MUNGU ROSE         00000000 0144262
250000852976HFULTANG NE BI MARGARET     00000000 0043500
250000S007499TATAH SYLVIA DZEMWO        00000000 0252565
250000S017229NJIDA VICTORY MANE         00000000 0123573
250000657254MMARIE LOUISE LEILA         00000000 0183425
250000657286NNDUCHO AUGUSTINE NDI       00000000 0169425
250000657305PNGWANKFU NFOR DOROTHY      00000000 0173925
250000657308XNJEBU CLETUS YINYU         00000000 0175025
250000657345ASHEY JACINTA SEMTUR        00000000 0161025
250000672119JACHONDUH MATHIAS ECHO      00000000 0123375
250000672320UGABIN GISCARD GOUNOUM      00000000 0048463
250000697863ZSUNYUY CHARLES BANLANJO    00000000 0160336
250000708426STEDOSIA DZEKELA YUFENYUY   00000000 0155836
250000818681MKEPNANG FLORENCE           00000000 0129938
250000833139WTCHAI NEE KODAI EVELYNE    00000000 0234608
250000833470TECHOBI JETHRO NEE ANOCHI P 00000000 0116426
250000041954XTOUMBA JANVIER             00000000 0164904
250000657798MLEMSA JOSEPH WIRNGO LEMSA  00000000 0160336
250000691603MWIYSELA EUCHARIA           00000000 0053086
250000041390UHINBARA LAISSANDOU         00000000 0053048
250000041412PNGORAN RICHARD             00000000 0117107
250000674816MLUKONG GIDEON KIMING       00000000 0184425
250000690271WYENGO CONFORT NFOR         00000000 0075532
250000793105BWANDA MOSES                00000000 0050000
250000793106SNDZI SAMUEL                00000000 0050000
250000793107BKKWANGNSAH SALIFU          00000000 0050000
250000820802XTEMBENG MARTHA             00000000 0021090
250000834969IMISON KINGLEY ISAAC        00000000 0017187
250000835472VMBALLA AMOUGOU PAUL        00000000 0324544
250000857472PMBI AKONDENG               00000000 0223116
250000J012893ARDO ADAMU DEH             00000000 0050000
250000041697YNFOR NGWANG SADRACK        00000000 0056426
250000041763FWIRNGO CHIN GILBERT        00000000 0181739
250000657632TBANBOYE LEOCADIA LAMI      00000000 1859105
250000657641UBERLINDA NYARKA NYINGSHA   00000000 0169836
250000657651EBIY JULIANA                00000000 0176725
250000657666PCHIFU PERPETUA BERI        00000000 0179525
250000709444VNAPTILA WINKAR LOVELINE    00000000 0155836
250000793110LNGEH STEPHEN               00000000 0050000
250000793122UBAWE FRANCIS NFOR          00000000 0050000
250000793123DNFOR ISAAC NGALA           00000000 0050000
250000793128ENGANJOH KENNEDY FONYE      00000000 0050000
250000793129NFAI NDZI NDZISHEPNGONG JON 00000000 0050000
250000793133VFAI NGANGE DAOUDA          00000000 0050000
250000793137FTAWONG INUHU               00000000 0050000
250000793139WFAI NGANTU NOAH            00000000 0050000
250000793171RKOCHO NECHU MARTIN         00000000 0050000
250000793173ADEHNTEH SIMON DUDU         00000000 0050000
250000793176JCHIMI PETER GYIOUMKWAN II  00000000 0050000
250000793180JKUH YORAH JONATHAN         00000000 0050000
250000793185JNFORNGARU ALEXANDER DETOH  00000000 0050000
250000793189AABDULAI TIMOTHY KUKUM      00000000 0050000
250000794057QYAYA ADAMU                 00000000 0050000
250000794073ZDAOUDA YUSUFA              00000000 0050000
250000821428WKENFACK EMILE MATURIN      00000000 0037200
250000836038YNDAN STEPHEN NGUM          00000000 0039875
250000822622ZAYORI WIRNGO JUSTIN        00000000 0021400
250000823143GDAKREO TCHAKLISSAM         00000000 0079707
250000837234MLAMSIKREO NEE MAIKOWA      00000000 0016811
250000837842HNJOUNDIYIMOUN BERNARD      00000000 0021484
250000862102MMUNCHEP THEREFENA          00000000 0010600
250000862479TTAKWA NE BONGYI MONICA     00000000 0049628
250000862545AKAH NEE DINAH MBIMBO MFUA  00000000 0045715
250000E020951NFOR PETER NFOR            00000000 0100000
250000658053JWIRNGO DORIS BONGSIYSI     00000000 0161025
250000658769IBAAH GLADYS FONYUI         00000000 0163136
250000659325AMUNKING VIVIAN             00000000 0161025
250000724743TEWOME ENANGE GRACE         00000000 0141500
250000758308ZNCHONCHO LENGI EPHESIAN    00000000 0155836
250000838334LADIYI MPOMA JEAN BLAISE    00000000 0027841
250000838403ASOULT NICOLAS EMMANUEL     00000000 0032119
250000795316XKIMBI EDMOND               00000000 0100000
250000800712GBERDU SOMO CHRISTOPHER     00000000 0009761
250000822071HTANIFORM OSOBO DAVID       00000000 0009825
250000836423MELOMBO THEODORE            00000000 0065194
250000860766CTANGIRI NE NKUH YENSI MARY 00000000 0030228
250000657880JNDI MERCY NKEH             00000000 0161436
250000657941XNJEGANI SAMUEL BUDZI       00000000 0155836
250000657953ZNKINEN REBECCA NSEM        00000000 0161025
250000657993TSHEI GABRIEL NGWANG        00000000 0169425
250000677939PNGOLOKO ARMAND DE DIEU     00000000 0256783
250000678879KLALIY VALENTINE TANGKA     00000000 0155836
250000028388JTATA CHIN PETER            00000000 0123356
250000570143ATEKE CHARLES NGIEWIH       00000000 0494370
250000576572NBETANA ROBERTSO MBONGE     00000000 0276805
250000864588GMBUM ELECTA WIRKOM         00000000 0024400
250000864805MABUNAW NEE ANNA ARREY ETTA 00000000 0032817
250000864931VFAISON NE KINYUY MARGARET  00000000 0202956
250000865058ZTEKOH NEE ABOH MARY UNJOH  00000000 0043800
250000O077803FONDZEYUF CHARLES          00000000 0050000
250000044606MNFORMI NFOR JOSEPH         00000000 0108919
250000660938MISSARILA                   00000000 0150591
250000662264PNGENGE AUGUSTINE NDOKONG N 00000000 0052780
250000569536DONANA BENA GEORGES BERTRAND00000000 0136924
250000569629MASAH DAVID SAMLEKUN        00000000 0331596
250000580829GYIEDJOU AROUN              00000000 0260047
250000580831HVICTOR NDI BUYO            00000000 0311705
250000580876SLYONGA ESSOMBE SAMUEL      00000000 0295615
250000617590HMANDENG MARC               00000000 0163238
250000617805STCHIKOUA HAMADOU           00000000 0345394
250000617957ZTSOUNGUI APOLINAIRE        00000000 0090322
250000618119XTAPANGUIGUE PATRICK SERGE  00000000 0154233
250000618132HSAMA EMILE BIENVENU        00000000 0287008
250000618211GERICK BINGONO BETY         00000000 0189928
250000618363MZAMBO AMOUGOU CYRILLE ALBE 00000000 0187739
250000618525KNGONO ODILE GERALDINE      00000000 0195904
250000618526SCHRISTOPHE TCHUTCHULEU X   00000000 0297110
250000618654WNGUEMA JACQUES ERIC AVENIR 00000000 0188878
250000618786MFOZEU KONGA GUY FRANCIS    00000000 0311286
250000639277VTATA MARCELINE RINGNYU     00000000 0177629
250000644211LKILAKFE CLARE KONGLIM      00000000 0150843
250000581234BAGNOH NKAM MAURICE         00000000 0233502
250000581448WAKONO MARTIN LUTHERE       00000000 0299067
250000586774XNDUMU GLADYS PHOBO         00000000 0253400
250000619100WFANMEGNE WANKAP ANTOINE    00000000 0177511
250000619111XAWE DOUMBIYAM LOIC         00000000 0235223
250000619153BMVOGO MARCEL GUY ULRICH    00000000 0328486
250000619244KTODOU TOUMBA CAMILLES      00000000 0240047
250000619364VSOUAIBOU AHMADOU           00000000 0267863
250000619366VATEBA ATEBA LOUIS MARTIAL  00000000 0201635
250000619373WAMOUGUI VITUS              00000000 0228566
250000619382XELIEME CAROLINE            00000000 0182036
250000619453NLASSOU PALAI X             00000000 0154296
250000619470XESSOUMAN NDIKANG FRABRICE  00000000 0175181
250000619703LNGUIANSSA BERTRAND         00000000 0233541
250000639531UYOMBO SUSAN NGWANKFU       00000000 0162029
250000645024DNKWAWIR YVETTE YENSINKEM   00000000 0165525
250000645065HNSAH ESTHER SHEE           00000000 0169229
250000571168VFITA CLEMENCE              00000000 0229581
250000571677AAKPEKE JOHNSON ETANA       00000000 0211916
250000571684BMASE TEKE MARY MOJOKO SAMA 00000000 0225960
250000571685SSAPINAL SONA NAENGE        00000000 0225781
250000577118ELONTOUO TOUOYEM MOISE      00000000 0290610
250000582162EHENRIETTE BIH NKUO         00000000 0227030
250000621413CHAMAN FINDJOURBE           00000000 0219971
250000621490AHAMADOU MOUSSA             00000000 0173355
250000621558IISSA MAHAMA                00000000 0232054
250000621601TOUMAROU KODA               00000000 0203410
250000621625FMESSI BIDZOGO MARCEL BERTR 00000000 0295878
250000621692TMBIDA FABIEN               00000000 0125842
250000621702NAKOA ATANGANA FRANCOIS     00000000 0245230
250000621737YNKOA EBODE JOSEPH ROMEO    00000000 0164290
250000621766KMBELE DONGUE PELAGIE       00000000 0224863
250000627853PMANGU VERONICA NGWANYA     00000000 0177825
250000627918EMARTIN MAMU NDOH           00000000 0184056
250000633913MGODJE ELIE                 00000000 0054264
250000640569ZBELINDA NJIYSILA           00000000 0169425
250000640585MBERNARD BANLAJAI NDZE      00000000 0005600
250000640622VBONGKIYUNG JOSEPH          00000000 0165525
250000645244YSELAMO GILBERT LEMFON      00000000 0155836
250000571720WNJEMBA JOSEPH NGOMBA       00000000 0218722
250000571802ENGUIM SAMUEL NGEBUIM       00000000 0100000
250000577423ZNSEKE NSEKE VICTOR ACHILE  00000000 0269877
250000577580GKONA OSCAR ALEX            00000000 0269137
250000577627SDEVA MICHEL                00000000 0245230
250000577782ZDAWAI VONDOU               00000000 0363254
250000583044TBESSOMO ASSOA ANGOA ROGER  00000000 0159283
250000589856IDJONWANG MANAKREO          00000000 0224665
250000589871MKAISSALA CHARLES           00000000 0229685
250000581517MADJIWA NDJOURI BERNARD     00000000 0216325
250000581710VYAYA SOULEYMANOU           00000000 0277243
250000581748INLEME HERVE EMMANUEL       00000000 0279284
250000619966SNANA JEAN ACHILLE MOISE    00000000 0240047
250000620040MAMADOU OSCAR               00000000 0220571
250000626906BKANJO GENESIS KOHNGUH      00000000 0170929
250000626932VKARNGONG MISPARINE BONYOH  00000000 0150843
250000626949XKEKE BERNARD NYEKA         00000000 0180429
250000627054RKERE JOHN TOTO             00000000 0161025
250000627101UKIMBI GRACE NSANGI         00000000 0180429
250000627189DKONGOR SAMMY KONGNYUI      00000000 0011200
250000644944NNGWA MARTINA LEM           00000000 0155836
250000570502MBOKABA NGOE SYLVESTRE      00000000 0285847
250000570556PMEH VALENTINE NGENG        00000000 0317681
250000570896EETAH NGULLE FELIX          00000000 0331037
250000570897NNJUALEM SYLVESTER NJINKENG 00000000 0236037
250000576858ONDJIDDA MAIDEGOU           00000000 0224854
250000576939NDINKANA VICTOR             00000000 0083987
250000576996KPETER EFANGE MAKOKO NDUMBE 00000000 0205692
250000581879UMBUNGINYUNS NSALA ANDREW   00000000 0208126
250000581886EMBONGNIG ETAME JEAN CLAUDE 00000000 0214912
250000581973DETOUNDI CHRISTOPHE         00000000 0284620
250000581976EMBEM ALONA FERNAND THIERRY 00000000 0167014
250000582067NSTEPHEN MONGOMBE           00000000 0194810
250000588083SMOHAMED HAMIDOU ABBA       00000000 0215092
250000588116WNOAH AMBATA LOUIS REMY     00000000 0244496
250000620610TOYONO SEVERIN DARLAIN      00000000 0252714
250000620650QFAMENI SEPZEU GUY RODRIGUE 00000000 0277852
250000620678JKEMENI THIERRY AIME        00000000 0185689
250000620731POTELE GUILLAUME ERIC       00000000 0109774
250000620844RBETETIE EVA                00000000 0215897
250000620905WNJI JULIUS FOSOH           00000000 0163385
250000621045KOBAMA OWONA VALENTIN       00000000 0167139
250000621066USIMON NGALE MATUTE         00000000 0177511
250000621295ROUMAROU X                  00000000 0295877
250000621298JBANDA MBOUM ELISE CLARENCE 00000000 0248843
250000621338UEDOUMBO DOUKI EPSE KAMAN L 00000000 0264730
250000627282UKUMBI JULIUS TANTO KUHBI   00000000 0179525
250000633484SDANWE BIENVENU DJONKAMLA   00000000 0591724
250000520736ONANJE NETAKELI GODWILL     00000000 0262694
250000037476AHAMAN PHILIPPE             00000000 0055869
250000037717OMANDANDI LADJAKA           00000000 0100417
250000037728HTAMFU NGAN CHRISTOPHE      00000000 0091722
250000578484PNGORAN GEORGE NJONG        00000000 0261296
250000578781JMOHAMED HAMIDOU            00000000 0285308
250000638810ULAINJO ORLANDO TAYOU       00000000 0176529
250000515422WEFFA ELE NEE EBOA MARIE PA 00000000 0224762
250000510644FABADE ENOME JUSTIN         00000000 0139757
250000524036LMVOGO LUCIEN               00000000 0106791
250000530044JBAH JOHN CHICK             00000000 0274647
250000551073DAWANA JEAN                 00000000 0318490
250000551079NTCHOCONTE JOSEPH           00000000 0388630
250000551193PNGUSHI TANGANG JOSEPH      00000000 0042400
250000624230EBEMI DIEUDONN EKPAKEN      00000000 0172029
250000635328XTANYU VICTOR KOHNGUH       00000000 0322132
250000635426HTONJOH ROBERTSON GANA      00000000 0161025
250000635494FVIVIAN MULOH NYAGANG       00000000 0150843
250000528251ANTUMKPU MICHAEL SHIYNGAM   00000000 0076329
250000542599CNDISHIANGONG RICHARD FAI   00000000 0325722
250000543340OMBO OSSOMO ALFRED ANGELO   00000000 0355349
250000561962LNANGA MEKE MYRIAM MAJOLIE  00000000 0285706
250000566928DNNAH FAITH TTABI           00000000 0301954
250000647322RMOHAMADOU AWALOU           00000000 0150158
250000647608JBEKOUNGOU MOISE MAXIME ARN 00000000 0224387
250000647611MABDOUL RAHMAN HAMAN AOUDI  00000000 0579711
250000647620SADAMOU APOLLINAIRE         00000000 0163601
250000647767YNGONGBI MARTHA KIMO        00000000 0172225
250000579070SNFOBA SHEY OLIVER          00000000 0240047
250000579078TNSEI BOBELONG COLBERT BEJO 00000000 0212560
250000579117XLEWE NGUEKEU ALAIN BERNARD 00000000 0295593
250000558481OBOUBA HOULI                00000000 0292435
250000565415WDJENGOUE TCHATCHOUA PIERRE 00000000 0275681
250000565425GDJEUKAM KAMBIWA GUY MERLIN 00000000 0307584
250000565519QMASSOUA SONE II TIMBONG BO 00000000 0308638
250000513010ZABA PAGOU JUSTIN           00000000 1518924
250000536037NSAKOUTOU JEAN RICHARD      00000000 0105846
250000536102SNGEH CHRISTOPHER NFORMI    00000000 0210154
250000602072VBINELE ETIENNE LEJEUNE     00000000 0272028
250000602297JASSATACH LAURENT 11        00000000 0302408
250000624534ZBONGNJO CONSTANTINE        00000000 0184929
250000624631MBUINTIM POTIFA             00000000 0164899
250000629785SNGEH EZEKIEL NDICHO        00000000 0402430
250000629815VTICHA NEE NGITIR ESTELLA Y 00000000 0159306
250000563945TKEPNANG DJOSSEU WALTER AYM 00000000 0322303
250000564046UAMENGLEFONO ANDRE PETIT    00000000 0209988
250000564057NFOUDA ANDRE                00000000 0176701
250000502627FMBOE MESSOMO               00000000 0133462
250000518408QSEGUE YAYAKA BENJAMIN      00000000 0182337
250000530138ASANGANA AGATHA ENAMA       00000000 0190539
250000530272VHOUTOING JEAN BOSCO        00000000 0046293
250000535165HNDJENDA GUILLAUME TEL      00000000 0131643
250000630112HNGONO CLEMENTINE ROSELINE  00000000 0155836
250000642064VSELA MARCEL BURINYUY       00000000 0172029
250000642297MWASI FELIX FON             00000000 0170929
250000642358HYUNTEH JOSHUA KONGNYUY     00000000 0167036
250000647867IENYEGUE ONDIGUI SALOMON    00000000 0177674
250000647920EASHU ABEL                  00000000 0224248
250000647964JEKEMEYONG CHARLY           00000000 0188485
250000648173CMBU PRIME EYA              00000000 0167801
250000648325MKISUH DAMIAN               00000000 0125842
250000040063PMISOM CHIA MOSES           00000000 0083984
250000522759JTEBID EMMANUEL TEBID       00000000 0125100
250000537137XATANGANA CHARLES DOMINIQUE 00000000 0312975
250000562223KKENDEG KENDEG JEAN CALVIN  00000000 0079876
250000567153IMBORINGONG PRIDE ASANGANA  00000000 0316734
250000579232MNGUI ESSONO ALFRED ELMER   00000000 0179878
250000579249SSAMBA KEMBO RAPHAEL        00000000 0336290
250000579318ZYENE LUC MARTIAL           00000000 0301338
250000579354TNGOTO PETER MOTOMBA        00000000 0248664
250000579403ZNDONG OYONO LAURENT LUTHER 00000000 0295238
250000603416NSIME LILIANE BRIGITTE      00000000 0277199
250000557696ZSANDA MALAYE               00000000 0272403
250000557737UBETKIMO MATTHIEU           00000000 0303263
250000554370ALUMUMBA MONIKANG           00000000 0353220
250000630362WNGWANG CONSTANCE MBIBU     00000000 0163743
250000630386INJABI ELVIS NCHOLOH        00000000 0177825
250000630460PNJOYA VICTOR BANTAR        00000000 0200129
250000636954QSIKA GLADYS KILA           00000000 0179588
250000636998SSOLOMON BAME NDIANGHA      00000000 0169425
250000642685MGABTEN EMMANUEL KAZEN      00000000 0179525
250000642783VLUKONG EMELDA BIVIRKA      00000000 0166429
250000648653OKIN NOU NANA THIERRY       00000000 0272460
250000564431XOWONO ELLA SAMUEL          00000000 0239544
250000564448ZNDZIE ONDOBO EPSE ZOA JISE 00000000 0368746
250000564515FLOH YAI GEORGE             00000000 0560078
250000564590EKOMBO KRISTIAN             00000000 0508900
250000516393UNDIFOR GLADIS FRI          00000000 0229232
250000519169BNGANKOU JEAN PIERRE        00000000 0660132
250000506660UVCTORIA NGO FON            00000000 0023000
250000579433BESSONE EDGER ETUHSONE      00000000 0290610
250000579667YOYONO EVINA BIENVENU ERIC  00000000 0289645
250000579676ZTEWA TOMSON JEAN HERMAN    00000000 0270112
250000579726VOSSAMA THOMAS              00000000 0318753
250000547498GMBARGA ATEDZOE GEORGES     00000000 0419393
250000550370FKOTTO NADJIMBAL NADJI      00000000 0294333
250000553529PHILE PAUL                  00000000 0058950
250000532270XASONGWE ODILIA             00000000 0045302
250000541871CEDOUNG ABOSSOLO JUSTIN XAV 00000000 0233068
250000603687NMALLA JEAN                 00000000 0172914
250000603904RWO O CHARLY JEAN PARFAIT   00000000 0258358
250000615362MABONDO GADIMA JEAN PIERRE  00000000 0188794
250000615391UABE AYISSI STEPHANE JUNIOR 00000000 0198930
250000615464BEFUETNKENG ROBINSON        00000000 0203430
250000615535MBACHIROU WATANKA           00000000 0274118
250000615547ABAKOUALI WIANDI CHRISTIAN  00000000 0252128
250000615552KKENANG VALERY              00000000 0266705
250000615587OMALLE JOHN MALLE           00000000 0261599
250000615593ONDANGE ERIC                00000000 0207697
250000615627MKANSAIN FOTIE ABOUBAKAR    00000000 0632835
250000615635AELOUNDOU OMGBA DENIS ROGER 00000000 0203197
250000615642KKAMGUEP TCHANYA CEDRIC     00000000 0172914
250000615698YBOBE ADAMBA HIVE BLANCHD   00000000 0278608
250000615725AEBANYA ESSONG ELIAS        00000000 0194858
250000615745CNDI DEREK KESINTE          00000000 0296628
250000625551KEKO CHARLES MANDE          00000000 0186029
250000630752INSHANJI ISAAC MBING        00000000 0156443
250000637162MTAMBANG MARTINA MANJU NGAB 00000000 0176529
250000637205FTANGWA YILA WINKAR         00000000 0164236
250000564658BBATOUKINI SERGE            00000000 0294729
250000564659SAKOA JEAN MARC             00000000 0312890
250000564722IMEBENGA JOACHIM            00000000 0362890
250000558822DTAIWA NEE ADELE            00000000 0255139
250000572247ECHE SIMON MUNICOLI         00000000 0236996
250000577805BNNANGAH FON EPSE NLEME JUL 00000000 0265507
250000577942XTSIENZO TSIENZO PARFAIT CO 00000000 0404443
250000577952QTSIMI OSCAR                00000000 0256379
250000590421SDJONGMO JUSTIN             00000000 0231826
250000590547FTIMBONG AKURE NJOYA        00000000 0222856
250000643362IADJIDJA NGUELE MARIETTE    00000000 0166429
250000649086MMBUNKUR FLORENCE NTOMBO    00000000 0238955
250000649285WNGONG EMMANUEL KWEI        00000000 0234455
250000649406MAPOLLONIA BONGWIR          00000000 0166429
250000568477WNDJOUMBA NDJONG JOELL ARNA 00000000 0334223
250000579980TEFFIAM AUGUSTINE AMBENO    00000000 0292681
250000564757CELOM ESSI JOSEPH           00000000 0217269
250000510066KTSAGUE SAMUEL              00000000 0228278
250000520338SNJI DAVID AKOH             00000000 0147325
250000525198BAZAH MARCUS                00000000 0052619
250000535533ZGOPISSOU TOUKOU            00000000 0339648
250000634459JMIFANG BETCY NGWENWA       00000000 0163825
250000634593FNCHONCHO DANIEL NODJA      00000000 0166429
250000634615HNDI YINKEU                 00000000 0179525
250000580145JBANYUY ZARIYAH             00000000 0248767
250000604161PMOHAMADOU ISSA YERIMA      00000000 0303984
250000615765VNDOMRA CELESTIN DOBEKREO   00000000 0180185
250000615790HIBANGO ACHILLE             00000000 0601716
250000615793ISAIDOU BERNAD              00000000 0274477
250000615805MNCHARE MAMA SALISSOU       00000000 0275284
250000615809JMAMAT MAIROU               00000000 0224566
250000615816MMANGA MENGOUMOU ANDRE MARIE00000000 0247628
250000615843UFAWA BERSALA FABRICE       00000000 0184782
250000615914BALIYOU ABOUBAKAR           00000000 0172914
250000615932DNGOU NJOMBE DANIEL         00000000 0300356
250000616052PTABE ROLAND BECHEM         00000000 0236346
250000616061QAKENNE NGOUANE ANICET BLECK00000000 0141578
250000616068IMADI PROSPER X             00000000 0243991
250000616070RDENNA BAYANG EMMANUEL      00000000 0233884
250000616105CMBANE KEVIN BRICE          00000000 0261337
250000616113UAJANDONG ELVIS EBONG       00000000 0223170
250000616137XABDOUL RASSOUL             00000000 0203115
250000616166MNWUADIKOH DENIS            00000000 0271600
250000616213EBAONAG BAONAG JULES AIME S 00000000 0254414
250000616229XDAMBILO CELESTIN           00000000 0184685
250000625679WEMBUFI EBUE VALENTINE      00000000 0161025
250000625680WEMBUFI OSCAR EKOMBO        00000000 0161025
250000534192ARUDOLF DOGIMA FONGOD       00000000 0224610
250000547961IATLEE DZEAWONI             00000000 0367020
250000550435CMASA GUILLAUME             00000000 0262622
250000540178EBESEKA AWO HYGINUS         00000000 0123480
250000572856SNSAI JAMES WIRBA           00000000 0216888
250000572922AEBOGO BIYEGUE JULIETTE BER 00000000 0094407
250000572944SZEH JEAN CLAUDE            00000000 0037037
250000577981ANKODO MPOT MEKA ACHILLE GI 00000000 0297973
250000578021FABDOULLAHI BOUBAKARY       00000000 0284317
250000578132QBAKARY SAIDOU              00000000 0277673
250000578175CABO DJOULDE                00000000 0232585
250000637805SVICTOR NGIRINGEH           00000000 0184056
250000637873JWAKOU DANIEL               00000000 0177825
250000637976AWIYFOFE STEPHEN NJOBAN     00000000 0161025
250000643561MBELINDA KONGLA NGAH        00000000 0141500
250000643611XBISMARK NKUMDZEMU          00000000 0151436
250000643631ZBOGHAN NIMROD SHUDZEKA     00000000 0177425
250000643638JBOSHO VALANTINE NGAVEOH    00000000 0150771
250000643650ABUVEN JULIUS NGAMSHA       00000000 0174829
250000649653PMBIYDZENYUY GERALD         00000000 0155343
250000649811VNTEH LEINTENG ROSE MARY    00000000 0172029
250000649913FVERNYUY PASCAL             00000000 0160943
250000568629LEKAK NDE CHRISTIAN MARINO  00000000 0346890
250000568648VAROGA MAMOUM FRANCK ALAIN  00000000 0296638
250000568766HAMANG MAX EMMANUEL RODRIQUE00000000 0313769
250000552776CAMOUGOU PIERRE FRANCOIS RE 00000000 0124649
250000558006MAHANDA MBASSEGUE HERMANN   00000000 0281352
250000558140IDIMBELET DIMA SERGE ANSELME00000000 0208583
250000556461SNDOFOR CALEMBA ACHEGENUI   00000000 0294234
250000566426QAPANA ZIPPORAH AMBUMBAN    00000000 0351439
250000566465LNGWA SAMUEL NEBA           00000000 0295553
250000629049AMOVEH OLIVIER LENDA        00000000 0175025
250000580204YAMINOU ILIASSOU            00000000 0175877
250000580223AMVONDO VERLAIN CLAUDE      00000000 0206915
250000565140OFONKOUA GILBERT HUGUES     00000000 0321804
250000520528CMBUNYA JOHN NKEMAZEN       00000000 0131846
250000535714IBIKO O MARTIN PAUL         00000000 0152822
250000634681NNFOR EDITH MUKAK           00000000 0172029
250000634682VNFOR STEPHEN BANTAR        00000000 0161025
250000634683FNFORMI IRENE KONGLA        00000000 0159243
250000634789GNGOMFE FERDINAND NFOR NFOR 00000000 0169425
250000641453XMENDONG EMMANUEL BETEK     00000000 0161025
250000646048XNGABIR Prodencia NJUH      00000000 0228787
250000643865NELIZABETH NTALA MUNKI      00000000 0163825
250000643881PEMILIENNE NKEYAK NGOSOMA   00000000 0165525
250000643900RENOW SARAH AYAMBA          00000000 0169836
250000550472PZE AZEGUE REMY             00000000 0401775
250000540511KWIRNKAR VALENTINE VERBURIN 00000000 0276288
250000551050BZANG ETO O                 00000000 0273803
250000551051KENDONO HENRI COLIN         00000000 0226693
250000578423MGARSILO WALKOU CASIMIR     00000000 0188563
250000591204IDJAKDJINREO DJONDANDI      00000000 0238693
250000569286WANOH REGULAR HJI           00000000 0290138
250000569315IMELIKI BOUTAL HUGUES       00000000 0268773
250000585776OMBI SERAH EGBE             00000000 0160104
250000565163YSONE DANIEL NNANGE         00000000 0333572
250000565170ZBAMBE TCHOUPLA RAYMOND     00000000 0242583
250000565171IZOUA ZOLY MICHEL           00000000 0409292
250000565211DKALUE MOISE                00000000 0279126
250000565219MAHMADOU X                  00000000 0506581
250000565228NATANGANA JOSEPH EMMANUEL   00000000 0265114
250000565242XTAPPA POUANI CALICE        00000000 0329690
250000565350ZZOURMBA JONATANG           00000000 0453033
250000565354RBABA OUMAR                 00000000 0269585
250000629259LNCHANJI FRANCIS BUDI       00000000 0191487
250000629351MNDIFON EMMANUEL BANGHA     00000000 0145874
250000635212MSANGMO FRANCIS MONYUYKIN   00000000 0166625
250000617299ONGEN TJANA Jean            00000000 0317217
250000617479OBIYE ASSOUMOU ANTOINETTE   00000000 0206915
250000617520JDOBO ALAIN                 00000000 0191268
250000527800AEKALE BAMOBE JOHN          00000000 0577202
250000557420RHAMADOU EMMANUEL           00000000 0208089
250000557500HSAMEDI ELIAS               00000000 0289645
250000557512RSALLE KINGSLY              00000000 0324212
250000563515EGADJI RENE                 00000000 0323390
250000563812HOUMAROU GENTIL OSCAR       00000000 0249387
250000515110KESSOMBA JEAN               00000000 0330942
250000628282VMBOKO SAMUEL SHEY          00000000 0184056
250000628301XMBONGYOR NAOMI NGANDO      00000000 0176025
250000634097MKIMENG LOUIS TATAH         00000000 0208856
250000634099JKINDZEKA MARY GIESE        00000000 0174829
250000634144WKWAHKA KINTATI JACQUELINE  00000000 0169425
250000640823GECHO ELIJAH MPARA          00000000 0170929
250000640968CFON KILLIAN                00000000 0150843
250000645529AYOMBO WILSON BEMI          00000000 0155836
250000532480ALUKONG AILCE TOMLA         00000000 0248887
250000557195DMINLO MBARGA LUCIEN XAVIER 00000000 0172683
250000563014JAISSATOU KAYA              00000000 0297302
250000563107MNDY MBARGA RICHARD         00000000 0249387
250000563155EEYEZOK MBOMEYO HENRI       00000000 0299067
250000563194AMPENG SYLVAIN ALBAN        00000000 0319674
250000507409PNSAH PATRICK KILOH         00000000 0011800
250000557263MBOUBA BRAI                 00000000 0269618
250000563404TBEKONO ZE JEREMIE          00000000 0184023
250000514529GTIMAH MANASSEH MBAH        00000000 0147192
