297600171800AKAMGA                      00000000 0199460
297600198083IWOLONG MATHIEU             00000000 0178762
297600155438EEDENE LEBENGUE             00000000 0291225
297600071676WMBARGA THEODORE            00000000 0027837
297600095252LNANDJOU ELIE               00000000 0038137
297600252607JKENEMBENI MARIE THERESE    00000000 0260038
297600048183YLOGMO LUCIEN ALEXIS        00000000 0382600
297600500179DTCHAPMBOU BERNARD          00000000 0046507
297600145786CKAMEN JEAN ROBERT          00000000 0158826
297600155825HMBEY EMMANUEL              00000000 0039424
297600163843QEDENE LEBENGUE MFEG        00000000 0162330
297600356174HMOUGOUE JEAN DE DIEU       00000000 0123817
297600356192ADATCHOUA FRANCOIS          00000000 0149728
297600078332EJIEMON SYLVESTRE           00000000 0112647
297600136565ZLONG SAMUEL                00000000 0204616
297600146043KKAODAI MARTINE             00000000 0062304
297600156685TMBITA LEA                  00000000 0112852
297600199255RMOUCHILI LUCAS             00000000 0103163
297600113402HNOMO NTSAMA JEAN           00000000 0030100
297600050180MMBEM NJOCK SAMUEL          00000000 0123916
297600078515NONDOUA NDONGO ELIE         00000000 0053441
297600147248NBASSOUMBOU MAN BASILE      00000000 0060644
297600173764ZLAGAN MVELEM OMER          00000000 0138627
297600360056IAVOZOA BRIGITTE            00000000 0046737
297600199415WKONGNSO WAWA JOHN NDI      00000000 0221218
297600360978BLESSOUK MARC               00000000 0230293
297600362751YBODO BENOIT JOSEPH PAUL    00000000 0162097
297600363589JFANMEGNE                   00000000 0148130
297600099694OLEMA EVISNA ANGELE         00000000 0153840
297600363007PTONGA ROSALIE              00000000 0039100
297600364171FKEUBOU JEAN                00000000 0268000
297600082208NMAFETGO KAMGA JULIETTE FLOR00000000 0054875
297600100009MKAMAHA JEAN ROGER          00000000 0169654
297600084827FEFOUA MEBAA                00000000 0145944
297600102152RNEMETE THEODORE            00000000 0045376
297600168400DKEMME KEMME ISAAC          00000000 0149131
297600368658DGUEFACK PIERRE             00000000 0075622
297600370265CMBERE JEAN PIERRE          00000000 0099430
297600064447MKETCHANJA JULIENNE         00000000 0168952
297600086709VLONTSI JEAN                00000000 0223578
297600365388AKELBABA ANTOINETTE MA      00000000 0046593
297600083129HEWONO JOSEPHINE            00000000 0131548
297600083595IFONE JANVIER               00000000 0053507
297600102015ULOUMGAM ISSOFA             00000000 0037600
297600117006HKOUNGA FRANCOIS            00000000 0157532
297600367786GKAMSEU REGINE              00000000 0044253
297600169984IMABEN BEGOE                00000000 0103808
297600170031NNGONO BELLA                00000000 0048726
297600371487YLOHA LOHA                  00000000 0258191
297600119478CKAMBA NEE MESOBO AYISSI    00000000 0111175
297600130400EFOTSO                      00000000 0020400
297600160058XMBOCK DANIEL               00000000 0116450
297600305141TSAHA JEAN PIERRE           00000000 0019900
297600059829MBATIMBA SIMPLICE           00000000 0243749
297600119752CBOGNE                      00000000 0115127
297600131634SESSOMBA ENGELBERT          00000000 0045580
297600701534XENGONO HERV ELVIS          00000000 0176006
297600702041CGOMADJI YOUBI CHRISTIAN TH 00000000 0176006
297600702307CZAME MENGUE SERGE FERDINAND00000000 0117172
297600742424WTATOU                      00000000 0117611
297600839169VEDOUMA MVOGO NEE MOLO HONO 00000000 0101877
297600662332VESSALA ERNEST DESIRE       00000000 0042571
297600662661MASSOMO OTSILI THERESE      00000000 0050353
297600662692NESENGUELE NATHALIE ROSE    00000000 0538248
297600663893YNYA TCHANI RUTH ESTHER     00000000 0110794
297600683595EDONFACK PIERRE MARIE       00000000 0171536
297600693181ZSOH KITIO SERGE AIME       00000000 0035180
297600725786RBOUL ESSEBE OTTI JEANNINE  00000000 0122344
297600743367ANTOH NADINE GISELE         00000000 0154394
297600201301WETOA ATEBA                 00000000 0050137
297600372730FMANGA NEE EYONO TINA       00000000 0062453
297600375911RLEMANA FAUSTIN             00000000 0326854
297600067218ALAMAGO ALBERT              00000000 0098025
297600092353BBITOTO PIERRE              00000000 0019300
297600305971ETUEKAM JULIENNE            00000000 0030812
297600683127LENGOULOU MIMBA JEAN PHILIP 00000000 0081576
297600683138EEYINGA MARGO GERTRUDE      00000000 0071258
297600683232ENGONO JEANNE NICOLE        00000000 0079659
297600683259YNTYAM EDANE ELODIE         00000000 0155836
297600683301TYOSSA IRENE HORTENCE       00000000 0064737
297600692671LMBALLA ANNY LAURE          00000000 0101909
297600761008ZBENGONO MYRIAM CARINE      00000000 0023298
297600825724CTCHAPMBOU BERNARD          00000000 0021461
297600841163XMBAZOA NEE ELLE ANNE VIRGI 00000000 0156606
297600664452ACHINMOUN                   00000000 0048463
297600664774WEVINDI HAROLD              00000000 0113193
297600694646BABENA MEDZA GEROME ANICET  00000000 0140226
297600694916BMENGUE FRANCK LUDOVIC      00000000 0132600
297600703303TMVONDO PATRICK BERENGER    00000000 0276624
297600843529AONDOBO MVOGO KISITO JEAN   00000000 0027570
297600844088BONANA NEE BA ANA SALOME MI 00000000 0246554
297600665344INGAH BELOMO MADELEINE EDWI 00000000 0059581
297600665468TTCHUENMEGNE HILAIRE BERTRA 00000000 0151772
297600665584OFOINAZI ANGELA BI          00000000 0068660
297600665879IATANGANA MARIE DANIELLE    00000000 0067981
297600653953VAMBONO OLIVIER             00000000 0040780
297600654064GNDJOMO FERDINAND           00000000 0016800
297600654441ZTCHANKAM MARC              00000000 0273597
297600667302PNIGUE JEAN PAUL            00000000 0048463
297600667352STALLA VICTOR               00000000 0045375
297600667358TTCHATAT GEORGETTE          00000000 0032390
297600667506IMBITA MARIE NICOLE         00000000 0051263
297600667555NNTSONGO DJOMO MELANIE      00000000 0048463
297600684580NANGONI                     00000000 0137227
297600684684WMATSIMI FELICITE           00000000 0101910
297600684700HMOUDANG A ZOCK ANDRE       00000000 0050480
297600684749LNOMO NKODO VERONIQUE       00000000 0115318
297600684759UONGOLO EKOM HEDWING        00000000 0123718
297600684824SAMOUGOU                    00000000 0090384
297600847432LNLOM NE ABENGDAND NDO MADE 00000000 0096632
297600847952AELOGO AMBASSA NEE AMANA A  00000000 0082500
297600848034JWAMBO JACQUES TELESPHORE   00000000 0048125
297600656321QNZIEFEU CAROLINE           00000000 0068975
297600668264LTOUNDA CHANTAL             00000000 0053048
297600668490YTCHAMOU MARTINE FLORE      00000000 0073581
297600684948VIDRISSOU AOUDOU            00000000 0070376
297600685060YNDIANG CATHERINE           00000000 0159009
297600685465LFOUDA MBIDA JACQUELINE FLO 00000000 0075532
297600685500PMVONDO MVONDO CHARLOTTE    00000000 0098260
297600685514QOTOU OTOU JEAN             00000000 0137227
297600844728LNDOUKEU NINTCHO ANGELE     00000000 0204131
297600844905KBAMEN NEE TSANANG EMILIENNE00000000 0334816
297600845614AISACK BAYIHA NEE NGO POUHE 00000000 0036994
297600653808RKAKOUAND ZANGA Agathe Rosi 00000000 0139836
297600666174JETOUNDI ALPHONSE           00000000 0005600
297600667067MYIAGNIGNI NSANGOU ABOUBAKA 00000000 0103467
297600814471MNANGA BARBARE              00000000 0041466
297600846277ETOUSSON NEE MOUTCHEU MBOMB 00000000 0133074
297600846444TJULIUS SAKWE BONGSIRU      00000000 0047953
297600846647ONJOYA NEE MUMCHE RAMATOU   00000000 0111108
297600846923ONAMA ALINGA NEE YAZEBAI AB 00000000 0022946
297600846967MAMOUGOU NE MEKONGO MARIE M 00000000 0030152
297600686490PNDZIE MVOGO LOUIS DEBOGAIN 00000000 0058472
297600686562NTAFOWA                     00000000 0082459
297600697465VSIAGUE TCHATCHEU MARIE LOU 00000000 0161025
297600731339NMBALLA BEFE BEATRICE DOROT 00000000 0023298
297600731374IEKAMENA  ne MVILONGO NGO Y 00000000 0030995
297600731376ZMAGA ONDOA MARIE HORTENCE  00000000 0044380
297600731380MNGO NONGA ERNESTINE        00000000 0044380
297600731381ANGONO HELENE ROSALIE       00000000 0030995
297600731385MMEVOMO  ne NGO OHN AURELIE 00000000 0011200
297600731441XAKONO MVONDO CHRISTINE     00000000 0030995
297600830075FMBARGA FOE EUGENE          00000000 0104400
297600848564YMBEI MBEI NEE NGO MINLEND  00000000 0044343
297600848667JSEGUE NEE NDJAMA SANAM SUZ 00000000 0269071
297600848790DNGUELE NE KOMEN MADELEINE  00000000 0053280
297600848980NMBOUROU MESSI NEE ESSOLA M 00000000 0122556
297600849316STSENE NE BILOA SABINE      00000000 0392082
297600849341VMANI NE ELA CATHERINE      00000000 0046406
297600849354WABENG MBIDA THRESE MARIE P 00000000 0360213
297600670010PASSOMO AMBOMBO RAPHAEL     00000000 0118186
297600670061TKAMDEM                     00000000 0156136
297600670114RNESOA ABRAHAM MOSAMA       00000000 0173316
297600670166ESOMO JOSEPH                00000000 0139875
297600670466QEFFALA ABENE MONIQUE SOLAN 00000000 0145814
297600685663NMBAZOA                     00000000 0067304
297600685813BABESSOLO ZANG NAOMIE       00000000 0063651
297600685865GBITHA                      00000000 0159777
297600685888MDIEUHOU DJAMPOU BERTRAND   00000000 0072904
297600685925UESSOMBA AGNES LANDRY       00000000 0059582
297600686053YMBAMENG FLORENCE           00000000 0072904
297600686069JMEKOULOU                   00000000 0064737
297600686124FNGAN ELISE CRYNTIAS        00000000 0070337
297600780986PABOMO OYONO ANDRE CYRIL    00000000 0103468
297600849620WKENGUE NEE DONGMO JEANNETTE00000000 0138890
297600850132LTIEJEM NEE NJAPNDOUNKE     00000000 0060928
297600850133TNAWOUO ELISE               00000000 0060928
297600850408CNGO MAKANDA SARA           00000000 0042410
297600850659AMANI NNE ETOA CLESTINE     00000000 0115886
297600671190HTENE                       00000000 0085049
297600853781QTCHEUTCHIE NEE NGOUNO RACH 00000000 0112728
297600674055FKITIO THERESE              00000000 0056080
297600674233FMOGHAYIE JEAN FRANCOIS     00000000 0128779
297600689533UONGODO                     00000000 0123718
297600708698KABISSAMA Gladys Flaure     00000000 0139836
297600733540MNYOLO ABOUDI ROSE          00000000 0063651
297600733729JFARIDA HAMADOU             00000000 0103850
297600752720ZNNOMO                      00000000 0125313
297600819840JABEKOU MARIE               00000000 0032630
297600854295NLANDRY PEPIN HAND          00000000 0128200
297600855041HBALLA NE ANDELA MVOGO XAVE 00000000 0044858
297600855853QHIOL YAMEFA FRANCOIS XAVIER00000000 0012890
297600782080YABOMBO CHRISTIAN           00000000 0094527
297600851481KABBE TSALA NEE NGONO MBARG 00000000 0099864
297600672244EEBANA KONO ADELE FLORENCE  00000000 0051263
297600687716TMBEZELE EPSE NDONGO CATHER 00000000 0155836
297600733503ONGANDJI LAMBERT            00000000 0070376
297600785421IESSAH CLAUDE DESIRE        00000000 0076362
297600042084MBALLA ENYEGUE MICHEL       00000000 0051724
297600042207NTCHOSSIEWE HENRI           00000000 0237974
297600676732TONDOBO THIERRY ROMEO       00000000 0581644
297600676904CMENYE KOUNA II GUY MARTIAL 00000000 0217205
297600677264SBOMI GUSTAVE  OR           00000000 0231414
297600677456UDEMANOU TIOLE DAVID RENE   00000000 0148792
297600691404BAMOUNYA KOUNOU BASILE      00000000 0072904
297600691445XDJUSSI MARCELINE           00000000 0055407
297600691495BMANIZE JOSEPHINE           00000000 0078331
297600691513MMOFFO CLODINE              00000000 0070376
297600674882HNKATA VALERIE              00000000 0048463
297600690046MBIYON SERGE AIME           00000000 0047448
297600690136MMBIDA ne  MENDOUGA BEATRICE00000000 0063651
297600690145SMETOU OU                   00000000 0812752
297600690181WNEGOU KAMDEM GUILLAUME     00000000 0048463
297600708971BCHETTA NADINE CHARLOTTE    00000000 0164236
297600789985FSILINOU VICTORINE          00000000 0226222
297600857780BELOUNDOU NEE ENDOMO MADELE 00000000 0065753
297600858012PAMANG ONANA NEE BANEMBIGUE 00000000 0110078
297600676064INTETE JEAN CALVIN          00000000 0140226
297600690719WASSO MVOMO Sandrine Vicky  00000000 0177607
297600858537FNGANJUYIE NEE NGONO MARIE  00000000 0100800
297600858553PNSA MBA ROUSSEAU           00000000 0111590
297600757080LKOUOTOU SIDONIE            00000000 0156194
297600837443UMMVONDO ONDOA NEE AMOUGOU  00000000 0083143
297600837680ANGONO MENYE NEE BIDZONI TH 00000000 0074572
297600861578TPOUATCHA NEE KOUETCHA REGI 00000000 0034018
297600681929JDJORWE DJORO Bienvenu      00000000 0183899
297600681933JDONFACK PAULINE MARTINE    00000000 0484473
297600757817NGOUATER JULIENNE           00000000 0070375
297600838666JTCHINDEBE NEE NYIA GLADYS  00000000 0070210
297600838675JSOSSOL ABAHICHO            00000000 0057234
297600794209EETOUNDI ALPHONSE           00000000 0050000
297600859684LOWONA NGOULE RENE          00000000 0058600
297600859781MNDZOMO NEE MBALLA MARIE AN 00000000 0052800
297600691810PMGBATOU MARTIN             00000000 0072569
297600691949LBETSAMA PARFAIT            00000000 0099051
297600691997YEFOUA                      00000000 0115318
297600738856MMANDOUM AMPALANGA CONRAD   00000000 0108441
297600025145MMEDJA SAMUEL               00000000 0107975
297600576311WMENDO OKOMEN JACQUELINE    00000000 0225806
297600659798TINENGUINI CLEMENT          00000000 0055953
297600659944MALIMA MBAZOA SERAPHIN      00000000 0048463
297600661821HTOUKAM ROSINE              00000000 0161025
297600662235UKOUOTOU FOUPOUAPOUOGNIGNI  00000000 0065323
297600682423EABODO CLOTILDE             00000000 0047448
297600682472JBAPITE IMALE GLORIA        00000000 0075532
297600682586CDONGMO AZAMBOU AURELIENNE  00000000 0229714
297600682638IEWOLO ANNE CLARENCE        00000000 0047448
297600682838ANDJE                       00000000 0088569
297600682892GNOAH                       00000000 0076859
297600682928APIAHEU NE TCHAPNGA NOUMEN  00000000 0083932
297600016911XTCHOUTCHUI ANNE PIERRETTE  00000000 0060320
297600606368BDJETCHEU YAGUEU JOSEPH MER 00000000 0298501
297600632530PSEUMEGNI ODETTE            00000000 0005600
297600619041ZAKOUMBA NGBWA KATHY MARINA 00000000 0231757
297600582117AENGOUE POUATCHA IDE        00000000 0242030
297600031288LMBENE LUCIEN               00000000 0197375
297600589481QATANGANA FRANCOIS          00000000 0189698
297600594792GNJOME NSAKO GASTON         00000000 0381665
297600620270OMEKA PAUL CAROL            00000000 0264041
297600570289XMOULIOM GBETNKOM ADAMOU LA 00000000 0163686
297600570937ZFOKAM FOKO JACQUES         00000000 0279470
297600595318OMOTAZE NSOH JEAN SIMON     00000000 0201810
297600595322WMOUAFFO GILBERT            00000000 0211751
297600595442ZMEBANDA JEANNE MARQUISE    00000000 0214908
297600595950OETOA MBIDA JEAN            00000000 0201810
297600037286YMESSANGAAKEBE SEBASTIEN    00000000 0104573
297600541133JNGAH VIRGINIE BERNADETTE   00000000 0027400
297600544860MTCHAMGOUE ROSE             00000000 0037876
297600528219XFOLEPE GILBERT             00000000 0374520
297600566845NLOGMO LUDOVIC TETKA        00000000 0285078
297600647289NZAMBO MBALA ANDRE PATRICK  00000000 0183301
297600509337JKANNA EMMANUEL             00000000 0332519
297600519060APOUTCHA REGINE             00000000 0024043
297600635831CMAVENDE JEAN PIERRE        00000000 0224315
297600528488XM BAPTE CHRETIEN           00000000 0085159
297600528587YFIFEN NEE KPOUNDOUERE HELE 00000000 0153326
297600553269YMOMENE ROGER               00000000 0332168
297600559399YESSISSIMA PASCAL HERVE     00000000 0273056
297600552479ANOMO ONANA ANNE MARGUERITE 00000000 0376350
297600643188JTCHONKEP GEORGETTE NICOLE  00000000 0155836
297600528744EMBEDE JEAN JACQUES         00000000 0217257
297600519087TNGAKOUE GARGETTE           00000000 0059327
297600524755SATANGANA NEE NTCHAME ESSAM 00000000 0122274
297600506990JACHA MORFAW NEEMENGUE ZA M 00000000 0051618
297600513689UFONONG FOMUSI EPHRAIM      00000000 0034692
297600572178PAFUTENDEM LUCAS NKWETTA    00000000 0401804
297600599241MNGNOUJIBA FRANCIS          00000000 0390399
297600510191WTABOUE EUPHRASIE           00000000 0250994
297600543002YFOUMANE NEE ZEH MARTHE     00000000 0292944
297600555641MKEANYEM TIMOTHEE           00000000 0384342
297600517406PTAGNE NEE MALLA TEIMBOU SY 00000000 0057118
297600034776JATANGANA CHARLES LEOPO     00000000 0042862
297600556518YJOSEPH NGON A KEEDI        00000000 0362092
297600650073DGANSOP KOUOMEGNE ANGEL     00000000 0270056
297600593914JMBARGA ESSOMBA PIERRE QUEN 00000000 0342775
297600631995XKANOU PIERRE MARIE         00000000 0132422
297600514991IYACKEU GERTRUDE            00000000 0152355
297600563251WMBIDA MEKA CYRILLE         00000000 0282027
